{
  "contractName": "TombGarden",
  "abi": [
    {
      "inputs": [],
      "stateMutability": "nonpayable",
      "type": "constructor"
    },
    {
      "anonymous": false,
      "inputs": [
        {
          "indexed": true,
          "internalType": "uint256",
          "name": "tombId",
          "type": "uint256"
        },
        {
          "indexed": true,
          "internalType": "address",
          "name": "payer",
          "type": "address"
        },
        {
          "indexed": false,
          "internalType": "uint256",
          "name": "amount",
          "type": "uint256"
        }
      ],
      "name": "RespectPaid",
      "type": "event"
    },
    {
      "anonymous": false,
      "inputs": [
        {
          "indexed": true,
          "internalType": "uint256",
          "name": "tombId",
          "type": "uint256"
        },
        {
          "indexed": false,
          "internalType": "string",
          "name": "name",
          "type": "string"
        },
        {
          "indexed": false,
          "internalType": "string",
          "name": "epitaph",
          "type": "string"
        },
        {
          "indexed": true,
          "internalType": "address",
          "name": "owner",
          "type": "address"
        },
        {
          "indexed": false,
          "internalType": "uint256",
          "name": "amount",
          "type": "uint256"
        }
      ],
      "name": "TombBuried",
      "type": "event"
    },
    {
      "inputs": [],
      "name": "buryFee",
      "outputs": [
        {
          "internalType": "uint256",
          "name": "",
          "type": "uint256"
        }
      ],
      "stateMutability": "view",
      "type": "function",
      "constant": true
    },
    {
      "inputs": [],
      "name": "owner",
      "outputs": [
        {
          "internalType": "address",
          "name": "",
          "type": "address"
        }
      ],
      "stateMutability": "view",
      "type": "function",
      "constant": true
    },
    {
      "inputs": [],
      "name": "respectFee",
      "outputs": [
        {
          "internalType": "uint256",
          "name": "",
          "type": "uint256"
        }
      ],
      "stateMutability": "view",
      "type": "function",
      "constant": true
    },
    {
      "inputs": [],
      "name": "tombCount",
      "outputs": [
        {
          "internalType": "uint256",
          "name": "",
          "type": "uint256"
        }
      ],
      "stateMutability": "view",
      "type": "function",
      "constant": true
    },
    {
      "inputs": [
        {
          "internalType": "uint256",
          "name": "",
          "type": "uint256"
        }
      ],
      "name": "tombs",
      "outputs": [
        {
          "internalType": "string",
          "name": "name",
          "type": "string"
        },
        {
          "internalType": "string",
          "name": "epitaph",
          "type": "string"
        },
        {
          "internalType": "address",
          "name": "owner",
          "type": "address"
        },
        {
          "internalType": "uint256",
          "name": "totalRespect",
          "type": "uint256"
        }
      ],
      "stateMutability": "view",
      "type": "function",
      "constant": true
    },
    {
      "inputs": [
        {
          "internalType": "uint256",
          "name": "newBuryFee",
          "type": "uint256"
        },
        {
          "internalType": "uint256",
          "name": "newRespectFee",
          "type": "uint256"
        }
      ],
      "name": "setFees",
      "outputs": [],
      "stateMutability": "nonpayable",
      "type": "function"
    },
    {
      "inputs": [
        {
          "internalType": "string",
          "name": "name",
          "type": "string"
        },
        {
          "internalType": "string",
          "name": "epitaph",
          "type": "string"
        }
      ],
      "name": "bury",
      "outputs": [
        {
          "internalType": "uint256",
          "name": "tombId",
          "type": "uint256"
        }
      ],
      "stateMutability": "payable",
      "type": "function",
      "payable": true
    },
    {
      "inputs": [
        {
          "internalType": "uint256",
          "name": "tombId",
          "type": "uint256"
        }
      ],
      "name": "payRespect",
      "outputs": [],
      "stateMutability": "payable",
      "type": "function",
      "payable": true
    },
    {
      "inputs": [
        {
          "internalType": "address payable",
          "name": "to",
          "type": "address"
        }
      ],
      "name": "withdraw",
      "outputs": [],
      "stateMutability": "nonpayable",
      "type": "function"
    }
  ],
  "bytecode": "0x60a060405266071afd498d000060005566038d7ea4c6800060015534801561002657600080fd5b503373ffffffffffffffffffffffffffffffffffffffff1660808173ffffffffffffffffffffffffffffffffffffffff16815250506080516113d861008460003960008181610234015281816102d4015261092401526113d86000f3fe6080604052600436106100a3576000357c01000000000000000000000000000000000000000000000000000000009004806374ccf9371161007657806374ccf93714610155578063771865b114610180578063814b6cbd1461019c5780638da5cb5b146101dc578063d4c1807c14610207576100a3565b80630b78f9c0146100a857806351cff8d9146100d15780635485474b146100fa5780636f49688b14610125575b600080fd5b3480156100b457600080fd5b506100cf60048036038101906100ca919061098c565b610232565b005b3480156100dd57600080fd5b506100f860048036038101906100f39190610a2a565b6102d2565b005b34801561010657600080fd5b5061010f61040a565b60405161011c9190610a66565b60405180910390f35b61013f600480360381019061013a9190610ae6565b610410565b60405161014c9190610a66565b60405180910390f35b34801561016157600080fd5b5061016a6106b3565b6040516101779190610a66565b60405180910390f35b61019a60048036038101906101959190610b67565b6106b9565b005b3480156101a857600080fd5b506101c360048036038101906101be9190610b67565b6107c2565b6040516101d39493929190610c45565b60405180910390f35b3480156101e857600080fd5b506101f1610922565b6040516101fe9190610c98565b60405180910390f35b34801561021357600080fd5b5061021c610946565b6040516102299190610a66565b60405180910390f35b7f000000000000000000000000000000000000000000000000000000000000000073ffffffffffffffffffffffffffffffffffffffff163373ffffffffffffffffffffffffffffffffffffffff16146102c0576040517f08c379a00000000000000000000000000000000000000000000000000000000081526004016102b790610cff565b60405180910390fd5b81600081905550806001819055505050565b7f000000000000000000000000000000000000000000000000000000000000000073ffffffffffffffffffffffffffffffffffffffff163373ffffffffffffffffffffffffffffffffffffffff1614610360576040517f08c379a000000000000000000000000000000000000000000000000000000000815260040161035790610cff565b60405180910390fd5b60003073ffffffffffffffffffffffffffffffffffffffff16319050600081116103bf576040517f08c379a00000000000000000000000000000000000000000000000000000000081526004016103b690610d6b565b60405180910390fd5b8173ffffffffffffffffffffffffffffffffffffffff166108fc829081150290604051600060405180830381858888f19350505050158015610405573d6000803e3d6000fd5b505050565b60005481565b6000808585905011610457576040517f08c379a000000000000000000000000000000000000000000000000000000000815260040161044e90610dd7565b60405180910390fd5b6000838390501161049d576040517f08c379a000000000000000000000000000000000000000000000000000000000815260040161049490610e43565b60405180910390fd5b6000543410156104e2576040517f08c379a00000000000000000000000000000000000000000000000000000000081526004016104d990610eaf565b60405180910390fd5b6002549050604051806080016040528086868080601f016020809104026020016040519081016040528093929190818152602001838380828437600081840152601f19601f82011690508083019250505050505050815260200184848080601f016020809104026020016040519081016040528093929190818152602001838380828437600081840152601f19601f8201169050808301925050505050505081526020013373ffffffffffffffffffffffffffffffffffffffff16815260200160008152506003600083815260200190815260200160002060008201518160000190816105cf9190611110565b5060208201518160010190816105e59190611110565b5060408201518160020160006101000a81548173ffffffffffffffffffffffffffffffffffffffff021916908373ffffffffffffffffffffffffffffffffffffffff1602179055506060820151816003015590505060016002600082825461064d9190611211565b925050819055503373ffffffffffffffffffffffffffffffffffffffff16817f606f7e62d0b0a986ccd35fb85fd03e579ace5c0374677fe90242bf0ba080c37c87878787346040516106a3959493929190611281565b60405180910390a3949350505050565b60025481565b60025481106106fd576040517f08c379a00000000000000000000000000000000000000000000000000000000081526004016106f490611316565b60405180910390fd5b600154341015610742576040517f08c379a000000000000000000000000000000000000000000000000000000000815260040161073990611382565b60405180910390fd5b60016003600083815260200190815260200160002060030160008282546107699190611211565b925050819055503373ffffffffffffffffffffffffffffffffffffffff16817f4efa3dc746c3bc1716ea6bf05521e740366241c2852532fbe80a45aabc810cd1346040516107b79190610a66565b60405180910390a350565b60036020528060005260406000206000915090508060000180546107e590610f2d565b80601f016020809104026020016040519081016040528092919081815260200182805461081190610f2d565b801561085e5780601f106108335761010080835404028352916020019161085e565b820191906000526020600020905b81548152906001019060200180831161084157829003601f168201915b50505050509080600101805461087390610f2d565b80601f016020809104026020016040519081016040528092919081815260200182805461089f90610f2d565b80156108ec5780601f106108c1576101008083540402835291602001916108ec565b820191906000526020600020905b8154815290600101906020018083116108cf57829003601f168201915b5050505050908060020160009054906101000a900473ffffffffffffffffffffffffffffffffffffffff16908060030154905084565b7f000000000000000000000000000000000000000000000000000000000000000081565b60015481565b600080fd5b600080fd5b6000819050919050565b61096981610956565b811461097457600080fd5b50565b60008135905061098681610960565b92915050565b600080604083850312156109a3576109a261094c565b5b60006109b185828601610977565b92505060206109c285828601610977565b9150509250929050565b600073ffffffffffffffffffffffffffffffffffffffff82169050919050565b60006109f7826109cc565b9050919050565b610a07816109ec565b8114610a1257600080fd5b50565b600081359050610a24816109fe565b92915050565b600060208284031215610a4057610a3f61094c565b5b6000610a4e84828501610a15565b91505092915050565b610a6081610956565b82525050565b6000602082019050610a7b6000830184610a57565b92915050565b600080fd5b600080fd5b600080fd5b60008083601f840112610aa657610aa5610a81565b5b8235905067ffffffffffffffff811115610ac357610ac2610a86565b5b602083019150836001820283011115610adf57610ade610a8b565b5b9250929050565b60008060008060408587031215610b0057610aff61094c565b5b600085013567ffffffffffffffff811115610b1e57610b1d610951565b5b610b2a87828801610a90565b9450945050602085013567ffffffffffffffff811115610b4d57610b4c610951565b5b610b5987828801610a90565b925092505092959194509250565b600060208284031215610b7d57610b7c61094c565b5b6000610b8b84828501610977565b91505092915050565b600081519050919050565b600082825260208201905092915050565b60005b83811015610bce578082015181840152602081019050610bb3565b60008484015250505050565b6000601f19601f8301169050919050565b6000610bf682610b94565b610c008185610b9f565b9350610c10818560208601610bb0565b610c1981610bda565b840191505092915050565b6000610c2f826109cc565b9050919050565b610c3f81610c24565b82525050565b60006080820190508181036000830152610c5f8187610beb565b90508181036020830152610c738186610beb565b9050610c826040830185610c36565b610c8f6060830184610a57565b95945050505050565b6000602082019050610cad6000830184610c36565b92915050565b7f6e6f74206f776e65720000000000000000000000000000000000000000000000600082015250565b6000610ce9600983610b9f565b9150610cf482610cb3565b602082019050919050565b60006020820190508181036000830152610d1881610cdc565b9050919050565b7f656d7074792062616c616e636500000000000000000000000000000000000000600082015250565b6000610d55600d83610b9f565b9150610d6082610d1f565b602082019050919050565b60006020820190508181036000830152610d8481610d48565b9050919050565b7f656d707479206e616d6500000000000000000000000000000000000000000000600082015250565b6000610dc1600a83610b9f565b9150610dcc82610d8b565b602082019050919050565b60006020820190508181036000830152610df081610db4565b9050919050565b7f656d707479206570697461706800000000000000000000000000000000000000600082015250565b6000610e2d600d83610b9f565b9150610e3882610df7565b602082019050919050565b60006020820190508181036000830152610e5c81610e20565b9050919050565b7f696e73756666696369656e742062757279206665650000000000000000000000600082015250565b6000610e99601583610b9f565b9150610ea482610e63565b602082019050919050565b60006020820190508181036000830152610ec881610e8c565b9050919050565b7f4e487b7100000000000000000000000000000000000000000000000000000000600052604160045260246000fd5b7f4e487b7100000000000000000000000000000000000000000000000000000000600052602260045260246000fd5b60006002820490506001821680610f4557607f821691505b602082108103610f5857610f57610efe565b5b50919050565b60008190508160005260206000209050919050565b60006020601f8301049050919050565b60008160020a8302905092915050565b600060088302610fc37fffffffffffffffffffffffffffffffffffffffffffffffffffffffffffffffff82610f83565b610fcd8683610f83565b95508019841693508086168417925050509392505050565b6000819050919050565b600061100a61100561100084610956565b610fe5565b610956565b9050919050565b6000819050919050565b61102483610fef565b61103861103082611011565b848454610f93565b825550505050565b600090565b61104d611040565b61105881848461101b565b505050565b5b8181101561107c57611071600082611045565b60018101905061105e565b5050565b601f8211156110c15761109281610f5e565b61109b84610f73565b810160208510156110aa578190505b6110be6110b685610f73565b83018261105d565b50505b505050565b60008160020a8304905092915050565b60006110e7600019846008026110c6565b1980831691505092915050565b600061110083836110d6565b9150826002028217905092915050565b61111982610b94565b67ffffffffffffffff81111561113257611131610ecf565b5b61113c8254610f2d565b611147828285611080565b600060209050601f83116001811461117a5760008415611168578287015190505b61117285826110f4565b8655506111da565b601f19841661118886610f5e565b60005b828110156111b05784890151825560018201915060208501945060208101905061118b565b868310156111cd57848901516111c9601f8916826110d6565b8355505b6001600288020188555050505b505050505050565b7f4e487b7100000000000000000000000000000000000000000000000000000000600052601160045260246000fd5b600061121c82610956565b915061122783610956565b925082820190508082111561123f5761123e6111e2565b5b92915050565b82818337600083830152505050565b60006112608385610b9f565b935061126d838584611245565b61127683610bda565b840190509392505050565b6000606082019050818103600083015261129c818789611254565b905081810360208301526112b1818587611254565b90506112c06040830184610a57565b9695505050505050565b7f746f6d62206e6f7420666f756e64000000000000000000000000000000000000600082015250565b6000611300600e83610b9f565b915061130b826112ca565b602082019050919050565b6000602082019050818103600083015261132f816112f3565b9050919050565b7f696e73756666696369656e742072657370656374206665650000000000000000600082015250565b600061136c601883610b9f565b915061137782611336565b602082019050919050565b6000602082019050818103600083015261139b8161135f565b905091905056fea264697066735822122018aca737b44c75926a9ad77ca0c094a36eab766c16168183ebb0f6b64a96c86064736f6c63430008150033",
  "immutableReferences": {
    "18": [
      {
        "length": 32,
        "start": 564
      },
      {
        "length": 32,
        "start": 724
      },
      {
        "length": 32,
        "start": 2340
      }
    ]
  },
  "source": "// SPDX-License-Identifier: MIT\npragma solidity ^0.8.21;\n\ncontract TombGarden {\n    // \n    struct Tomb {\n        string name; // \n        string epitaph; // \n        address owner; // \n        uint256 totalRespect; // \n    }\n\n    uint256 public buryFee = 0.002 ether; // \n    uint256 public respectFee = 0.001 ether; // \n    address public immutable owner; // \n    uint256 public tombCount; // \n    mapping(uint256 => Tomb) public tombs; // tombId => \n\n    event TombBuried(uint256 indexed tombId, string name, string epitaph, address indexed owner, uint256 amount);\n    event RespectPaid(uint256 indexed tombId, address indexed payer, uint256 amount);\n\n    modifier onlyOwner() {\n        require(msg.sender == owner, \"not owner\");\n        _;\n    }\n\n    constructor() {\n        owner = msg.sender; // \n    }\n\n    function setFees(uint256 newBuryFee, uint256 newRespectFee) external onlyOwner {\n        buryFee = newBuryFee;\n        respectFee = newRespectFee;\n    }\n\n    function bury(string calldata name, string calldata epitaph) external payable returns (uint256 tombId) {\n        require(bytes(name).length > 0, \"empty name\");\n        require(bytes(epitaph).length > 0, \"empty epitaph\");\n        require(msg.value >= buryFee, \"insufficient bury fee\");\n\n        tombId = tombCount; // ID\n        tombs[tombId] = Tomb({name: name, epitaph: epitaph, owner: msg.sender, totalRespect: 0});\n        tombCount += 1;\n\n        emit TombBuried(tombId, name, epitaph, msg.sender, msg.value); // \n    }\n\n    function payRespect(uint256 tombId) external payable {\n        require(tombId < tombCount, \"tomb not found\");\n        require(msg.value >= respectFee, \"insufficient respect fee\");\n\n        tombs[tombId].totalRespect += 1; // \n        emit RespectPaid(tombId, msg.sender, msg.value);\n    }\n\n    function withdraw(address payable to) external onlyOwner {\n        uint256 bal = address(this).balance;\n        require(bal > 0, \"empty balance\");\n        to.transfer(bal); // \n    }\n}\n",
  "sourcePath": "/Users/shenweisheng/Desktop/test/truffle-tomb/contracts/TombGarden.sol",
  "compiler": {
    "name": "solc",
    "version": "0.8.21+commit.d9974bed.Emscripten.clang"
  },
  "schemaVersion": "3.4.16",
  "updatedAt": "2025-11-28T13:28:57.065Z",
  "networkType": "ethereum",
  "devdoc": {
    "kind": "dev",
    "methods": {},
    "version": 1
  },
  "userdoc": {
    "kind": "user",
    "methods": {},
    "version": 1
  }
}