{
  "_format": "hh3-artifact-1",
  "contractName": "TombGarden",
  "sourceName": "contracts/TombGarden.sol",
  "abi": [
    {
      "inputs": [],
      "stateMutability": "nonpayable",
      "type": "constructor"
    },
    {
      "anonymous": false,
      "inputs": [
        {
          "indexed": true,
          "internalType": "uint256",
          "name": "tombId",
          "type": "uint256"
        },
        {
          "indexed": true,
          "internalType": "address",
          "name": "payer",
          "type": "address"
        },
        {
          "indexed": false,
          "internalType": "uint256",
          "name": "amount",
          "type": "uint256"
        }
      ],
      "name": "RespectPaid",
      "type": "event"
    },
    {
      "anonymous": false,
      "inputs": [
        {
          "indexed": true,
          "internalType": "uint256",
          "name": "tombId",
          "type": "uint256"
        },
        {
          "indexed": false,
          "internalType": "string",
          "name": "name",
          "type": "string"
        },
        {
          "indexed": false,
          "internalType": "string",
          "name": "epitaph",
          "type": "string"
        },
        {
          "indexed": true,
          "internalType": "address",
          "name": "owner",
          "type": "address"
        },
        {
          "indexed": false,
          "internalType": "uint256",
          "name": "amount",
          "type": "uint256"
        }
      ],
      "name": "TombBuried",
      "type": "event"
    },
    {
      "inputs": [
        {
          "internalType": "string",
          "name": "name",
          "type": "string"
        },
        {
          "internalType": "string",
          "name": "epitaph",
          "type": "string"
        }
      ],
      "name": "bury",
      "outputs": [
        {
          "internalType": "uint256",
          "name": "tombId",
          "type": "uint256"
        }
      ],
      "stateMutability": "payable",
      "type": "function"
    },
    {
      "inputs": [],
      "name": "buryFee",
      "outputs": [
        {
          "internalType": "uint256",
          "name": "",
          "type": "uint256"
        }
      ],
      "stateMutability": "view",
      "type": "function"
    },
    {
      "inputs": [],
      "name": "owner",
      "outputs": [
        {
          "internalType": "address",
          "name": "",
          "type": "address"
        }
      ],
      "stateMutability": "view",
      "type": "function"
    },
    {
      "inputs": [
        {
          "internalType": "uint256",
          "name": "tombId",
          "type": "uint256"
        }
      ],
      "name": "payRespect",
      "outputs": [],
      "stateMutability": "payable",
      "type": "function"
    },
    {
      "inputs": [],
      "name": "respectFee",
      "outputs": [
        {
          "internalType": "uint256",
          "name": "",
          "type": "uint256"
        }
      ],
      "stateMutability": "view",
      "type": "function"
    },
    {
      "inputs": [
        {
          "internalType": "uint256",
          "name": "newBuryFee",
          "type": "uint256"
        },
        {
          "internalType": "uint256",
          "name": "newRespectFee",
          "type": "uint256"
        }
      ],
      "name": "setFees",
      "outputs": [],
      "stateMutability": "nonpayable",
      "type": "function"
    },
    {
      "inputs": [],
      "name": "tombCount",
      "outputs": [
        {
          "internalType": "uint256",
          "name": "",
          "type": "uint256"
        }
      ],
      "stateMutability": "view",
      "type": "function"
    },
    {
      "inputs": [
        {
          "internalType": "uint256",
          "name": "",
          "type": "uint256"
        }
      ],
      "name": "tombs",
      "outputs": [
        {
          "internalType": "string",
          "name": "name",
          "type": "string"
        },
        {
          "internalType": "string",
          "name": "epitaph",
          "type": "string"
        },
        {
          "internalType": "address",
          "name": "owner",
          "type": "address"
        },
        {
          "internalType": "uint256",
          "name": "totalRespect",
          "type": "uint256"
        }
      ],
      "stateMutability": "view",
      "type": "function"
    },
    {
      "inputs": [
        {
          "internalType": "address payable",
          "name": "to",
          "type": "address"
        }
      ],
      "name": "withdraw",
      "outputs": [],
      "stateMutability": "nonpayable",
      "type": "function"
    }
  ],
  "bytecode": "0x60a060405266071afd498d00005f5566038d7ea4c680006001553480156023575f5ffd5b503373ffffffffffffffffffffffffffffffffffffffff1660808173ffffffffffffffffffffffffffffffffffffffff168152505060805161130261007e5f395f818161020e015281816102ad01526108c801526113025ff3fe608060405260043610610085575f3560e01c806374ccf9371161005857806374ccf93714610133578063771865b11461015d578063814b6cbd146101795780638da5cb5b146101b8578063d4c1807c146101e257610085565b80630b78f9c01461008957806351cff8d9146100b15780635485474b146100d95780636f49688b14610103575b5f5ffd5b348015610094575f5ffd5b506100af60048036038101906100aa919061092b565b61020c565b005b3480156100bc575f5ffd5b506100d760048036038101906100d291906109c3565b6102ab565b005b3480156100e4575f5ffd5b506100ed6103c7565b6040516100fa91906109fd565b60405180910390f35b61011d60048036038101906101189190610a77565b6103cc565b60405161012a91906109fd565b60405180910390f35b34801561013e575f5ffd5b50610147610663565b60405161015491906109fd565b60405180910390f35b61017760048036038101906101729190610af5565b610669565b005b348015610184575f5ffd5b5061019f600480360381019061019a9190610af5565b61076f565b6040516101af9493929190610bb0565b60405180910390f35b3480156101c3575f5ffd5b506101cc6108c6565b6040516101d99190610c01565b60405180910390f35b3480156101ed575f5ffd5b506101f66108ea565b60405161020391906109fd565b60405180910390f35b7f000000000000000000000000000000000000000000000000000000000000000073ffffffffffffffffffffffffffffffffffffffff163373ffffffffffffffffffffffffffffffffffffffff161461029a576040517f08c379a000000000000000000000000000000000000000000000000000000000815260040161029190610c64565b60405180910390fd5b815f81905550806001819055505050565b7f000000000000000000000000000000000000000000000000000000000000000073ffffffffffffffffffffffffffffffffffffffff163373ffffffffffffffffffffffffffffffffffffffff1614610339576040517f08c379a000000000000000000000000000000000000000000000000000000000815260040161033090610c64565b60405180910390fd5b5f4790505f811161037f576040517f08c379a000000000000000000000000000000000000000000000000000000000815260040161037690610ccc565b60405180910390fd5b8173ffffffffffffffffffffffffffffffffffffffff166108fc8290811502906040515f60405180830381858888f193505050501580156103c2573d5f5f3e3d5ffd5b505050565b5f5481565b5f5f8585905011610412576040517f08c379a000000000000000000000000000000000000000000000000000000000815260040161040990610d34565b60405180910390fd5b5f8383905011610457576040517f08c379a000000000000000000000000000000000000000000000000000000000815260040161044e90610d9c565b60405180910390fd5b5f5434101561049b576040517f08c379a000000000000000000000000000000000000000000000000000000000815260040161049290610e04565b60405180910390fd5b6002549050604051806080016040528086868080601f0160208091040260200160405190810160405280939291908181526020018383808284375f81840152601f19601f82011690508083019250505050505050815260200184848080601f0160208091040260200160405190810160405280939291908181526020018383808284375f81840152601f19601f8201169050808301925050505050505081526020013373ffffffffffffffffffffffffffffffffffffffff1681526020015f81525060035f8381526020019081526020015f205f820151815f019081610581919061104c565b506020820151816001019081610597919061104c565b506040820151816002015f6101000a81548173ffffffffffffffffffffffffffffffffffffffff021916908373ffffffffffffffffffffffffffffffffffffffff16021790555060608201518160030155905050600160025f8282546105fd9190611148565b925050819055503373ffffffffffffffffffffffffffffffffffffffff16817f606f7e62d0b0a986ccd35fb85fd03e579ace5c0374677fe90242bf0ba080c37c87878787346040516106539594939291906111b5565b60405180910390a3949350505050565b60025481565b60025481106106ad576040517f08c379a00000000000000000000000000000000000000000000000000000000081526004016106a490611246565b60405180910390fd5b6001543410156106f2576040517f08c379a00000000000000000000000000000000000000000000000000000000081526004016106e9906112ae565b60405180910390fd5b600160035f8381526020019081526020015f206003015f8282546107169190611148565b925050819055503373ffffffffffffffffffffffffffffffffffffffff16817f4efa3dc746c3bc1716ea6bf05521e740366241c2852532fbe80a45aabc810cd13460405161076491906109fd565b60405180910390a350565b6003602052805f5260405f205f91509050805f01805461078e90610e7c565b80601f01602080910402602001604051908101604052809291908181526020018280546107ba90610e7c565b80156108055780601f106107dc57610100808354040283529160200191610805565b820191905f5260205f20905b8154815290600101906020018083116107e857829003601f168201915b50505050509080600101805461081a90610e7c565b80601f016020809104026020016040519081016040528092919081815260200182805461084690610e7c565b80156108915780601f1061086857610100808354040283529160200191610891565b820191905f5260205f20905b81548152906001019060200180831161087457829003601f168201915b505050505090806002015f9054906101000a900473ffffffffffffffffffffffffffffffffffffffff16908060030154905084565b7f000000000000000000000000000000000000000000000000000000000000000081565b60015481565b5f5ffd5b5f5ffd5b5f819050919050565b61090a816108f8565b8114610914575f5ffd5b50565b5f8135905061092581610901565b92915050565b5f5f60408385031215610941576109406108f0565b5b5f61094e85828601610917565b925050602061095f85828601610917565b9150509250929050565b5f73ffffffffffffffffffffffffffffffffffffffff82169050919050565b5f61099282610969565b9050919050565b6109a281610988565b81146109ac575f5ffd5b50565b5f813590506109bd81610999565b92915050565b5f602082840312156109d8576109d76108f0565b5b5f6109e5848285016109af565b91505092915050565b6109f7816108f8565b82525050565b5f602082019050610a105f8301846109ee565b92915050565b5f5ffd5b5f5ffd5b5f5ffd5b5f5f83601f840112610a3757610a36610a16565b5b8235905067ffffffffffffffff811115610a5457610a53610a1a565b5b602083019150836001820283011115610a7057610a6f610a1e565b5b9250929050565b5f5f5f5f60408587031215610a8f57610a8e6108f0565b5b5f85013567ffffffffffffffff811115610aac57610aab6108f4565b5b610ab887828801610a22565b9450945050602085013567ffffffffffffffff811115610adb57610ada6108f4565b5b610ae787828801610a22565b925092505092959194509250565b5f60208284031215610b0a57610b096108f0565b5b5f610b1784828501610917565b91505092915050565b5f81519050919050565b5f82825260208201905092915050565b8281835e5f83830152505050565b5f601f19601f8301169050919050565b5f610b6282610b20565b610b6c8185610b2a565b9350610b7c818560208601610b3a565b610b8581610b48565b840191505092915050565b5f610b9a82610969565b9050919050565b610baa81610b90565b82525050565b5f6080820190508181035f830152610bc88187610b58565b90508181036020830152610bdc8186610b58565b9050610beb6040830185610ba1565b610bf860608301846109ee565b95945050505050565b5f602082019050610c145f830184610ba1565b92915050565b7f6e6f74206f776e657200000000000000000000000000000000000000000000005f82015250565b5f610c4e600983610b2a565b9150610c5982610c1a565b602082019050919050565b5f6020820190508181035f830152610c7b81610c42565b9050919050565b7f656d7074792062616c616e6365000000000000000000000000000000000000005f82015250565b5f610cb6600d83610b2a565b9150610cc182610c82565b602082019050919050565b5f6020820190508181035f830152610ce381610caa565b9050919050565b7f656d707479206e616d65000000000000000000000000000000000000000000005f82015250565b5f610d1e600a83610b2a565b9150610d2982610cea565b602082019050919050565b5f6020820190508181035f830152610d4b81610d12565b9050919050565b7f656d7074792065706974617068000000000000000000000000000000000000005f82015250565b5f610d86600d83610b2a565b9150610d9182610d52565b602082019050919050565b5f6020820190508181035f830152610db381610d7a565b9050919050565b7f696e73756666696369656e7420627572792066656500000000000000000000005f82015250565b5f610dee601583610b2a565b9150610df982610dba565b602082019050919050565b5f6020820190508181035f830152610e1b81610de2565b9050919050565b7f4e487b71000000000000000000000000000000000000000000000000000000005f52604160045260245ffd5b7f4e487b71000000000000000000000000000000000000000000000000000000005f52602260045260245ffd5b5f6002820490506001821680610e9357607f821691505b602082108103610ea657610ea5610e4f565b5b50919050565b5f819050815f5260205f209050919050565b5f6020601f8301049050919050565b5f82821b905092915050565b5f60088302610f087fffffffffffffffffffffffffffffffffffffffffffffffffffffffffffffffff82610ecd565b610f128683610ecd565b95508019841693508086168417925050509392505050565b5f819050919050565b5f610f4d610f48610f43846108f8565b610f2a565b6108f8565b9050919050565b5f819050919050565b610f6683610f33565b610f7a610f7282610f54565b848454610ed9565b825550505050565b5f5f905090565b610f91610f82565b610f9c818484610f5d565b505050565b5b81811015610fbf57610fb45f82610f89565b600181019050610fa2565b5050565b601f82111561100457610fd581610eac565b610fde84610ebe565b81016020851015610fed578190505b611001610ff985610ebe565b830182610fa1565b50505b505050565b5f82821c905092915050565b5f6110245f1984600802611009565b1980831691505092915050565b5f61103c8383611015565b9150826002028217905092915050565b61105582610b20565b67ffffffffffffffff81111561106e5761106d610e22565b5b6110788254610e7c565b611083828285610fc3565b5f60209050601f8311600181146110b4575f84156110a2578287015190505b6110ac8582611031565b865550611113565b601f1984166110c286610eac565b5f5b828110156110e9578489015182556001820191506020850194506020810190506110c4565b868310156111065784890151611102601f891682611015565b8355505b6001600288020188555050505b505050505050565b7f4e487b71000000000000000000000000000000000000000000000000000000005f52601160045260245ffd5b5f611152826108f8565b915061115d836108f8565b92508282019050808211156111755761117461111b565b5b92915050565b828183375f83830152505050565b5f6111948385610b2a565b93506111a183858461117b565b6111aa83610b48565b840190509392505050565b5f6060820190508181035f8301526111ce818789611189565b905081810360208301526111e3818587611189565b90506111f260408301846109ee565b9695505050505050565b7f746f6d62206e6f7420666f756e640000000000000000000000000000000000005f82015250565b5f611230600e83610b2a565b915061123b826111fc565b602082019050919050565b5f6020820190508181035f83015261125d81611224565b9050919050565b7f696e73756666696369656e7420726573706563742066656500000000000000005f82015250565b5f611298601883610b2a565b91506112a382611264565b602082019050919050565b5f6020820190508181035f8301526112c58161128c565b905091905056fea2646970667358221220257c7cc9939ac1ede5db78a575c74a1c85d0f4df13eda5c59bf93eb00f32c26764736f6c634300081c0033",
  "linkReferences": {},
  "deployedLinkReferences": {},
  "immutableReferences": {
    "18": [
      {
        "length": 32,
        "start": 526
      },
      {
        "length": 32,
        "start": 685
      },
      {
        "length": 32,
        "start": 2248
      }
    ]
  },
  "inputSourceName": "project/contracts/TombGarden.sol",
  "buildInfoId": "solc-0_8_28-27de00c4f8a8f03aa4d1d875e7e368a478357a8f"
}